:100000000C9434000C943E000C943E000C943E0082
:100010000C943E000C943E000C943E000C943E0068
:100020000C943E000C943E000C943E000C943E0058
:100030000C943E000C943E000C943E000C943E0048
:100040000C943E000C943E000C943E000C943E0038
:100050000C943E000C943E000C943E000C943E0028
:100060000C943E000C943E0011241FBECFEFD8E04C
:10007000DEBFCDBF0E9475000C948B000C94000075
:10008000DF93CF9300D0CDB7DEB71A82198223C099
:10009000E6E4F0E083E88083E4E4F0E01082E5E465
:1000A000F0E084E08083E5E3F0E08081882F90E059
:1000B000817090700097B9F3E4E4F0E01082E5E419
:1000C000F0E01082E5E3F0E081E0808389819A81AD
:1000D00001969A83898389819A818A379105C0F232
:1000E0000F900F90CF91DF910895DF93CF93CDB70D
:1000F000DEB7A4E2B0E0E4E2F0E0808180628C93BD
:10010000A5E2B0E0E5E2F0E0908180E289278C93FF
:0A0110000E944000F5CFF894FFCFE5
:00000001FF
