:100000000C9434000C943E000C943E000C943E0082
:100010000C943E000C943E000C943E000C943E0068
:100020000C943E000C943E000C943E000C943E0058
:100030000C943E000C943E000C943E000C943E0048
:100040000C943E000C943E000C943E000C943E0038
:100050000C943E000C943E000C943E000C943E0028
:100060000C943E000C943E0011241FBECFEFD8E04C
:10007000DEBFCDBF0E9440000C9483000C940000B2
:10008000509A399880917A00806880937A008091A4
:100090007A00876080937A0080917C008F7B8093C8
:1000A0007C0080917C008F7780937C0080917C0025
:1000B000816080937C0080917C00817F80937C00B4
:1000C00080917A00806480937A0080917C008F7D9B
:1000D00080937C0080917A0084FFFCCF209178008F
:1000E0008091790090E0982F8827820F911D8115CB
:1000F000924014F4589A01C0589880917A00806414
:0A01000080937A00E7CFF894FFCF58
:00000001FF
