:100000000C9434000C9449000C9449000C94490061
:100010000C9449000C9449000C9449000C9449003C
:100020000C9449000C9449000C9449000C9449002C
:100030000C9449000C9449000C9449000C9449001C
:100040000C9449000C9449000C9449000C9449000C
:100050000C9449000C9449000C9449000C944900FC
:100060000C9449000C94490011241FBECFEFD8E036
:10007000DEBFCDBF11E0A0E0B1E0E0E2F1E002C000
:1000800005900D92A433B107D9F70E946A000C9431
:100090008E000C94000087E68093C4001092C50087
:1000A00086E88093C200E1ECF0E080818860808384
:1000B00080818061808308959091C00095FFFCCF7E
:1000C0008093C60008958091C00087FFFCCF809187
:1000D000C6000895CF93DF93CDB7DEB7E4970FB690
:1000E000F894DEBF0FBECDBF0E944B0084E3E0E07A
:1000F000F1E0DE01119601900D928A95E1F710E092
:10010000E1E0F0E0EC0FFD1FE10FF11D808188239D
:1001100021F00E945C001F5FF3CFFFCFF894FFCF68
:10012000566973687661204E6176616E6A616E61B0
:1001300020452F31372F3239372C5468697361725B
:1001400061204D616E6F6861726120452F31372FDC
:040150003230360013
:00000001FF
