:100000000C9434000C943E000C943E000C943E0082
:100010000C943E000C943E000C943E000C943E0068
:100020000C943E000C943E000C943E000C943E0058
:100030000C943E000C943E000C943E000C943E0048
:100040000C943E000C943E000C943E000C943E0038
:100050000C943E000C943E000C943E000C943E0028
:100060000C943E000C943E0011241FBECFEFD8E04C
:10007000DEBFCDBF0E9465000C947B000C94000095
:10008000DF93CF93CDB7DEB7E6E4F0E083E880837B
:10009000E4E4F0E01082E5E4F0E084E08083E5E36E
:1000A000F0E08081882F90E0817090700097B9F324
:1000B000E4E4F0E01082E5E4F0E01082E5E3F0E053
:1000C00081E08083CF91DF910895DF93CF93CDB707
:1000D000DEB7A4E2B0E0E4E2F0E0808180628C93DD
:1000E000A5E2B0E0E5E2F0E0908180E289278C9320
:0A00F0000E944000F5CFF894FFCF06
:00000001FF
