:100000000C9434000C943E000C943E000C943E0082
:100010000C943E000C943E000C943E000C943E0068
:100020000C943E000C943E000C943E000C943E0058
:100030000C943E000C943E000C943E000C943E0048
:100040000C943E000C943E000C943E000C943E0038
:100050000C943E000C943E000C943E000C943E0028
:100060000C943E000C943E0011241FBECFEFD8E04C
:10007000DEBFCDBF0E9440000C9474000C940000C1
:10008000569A83E884BD92E08FEF34E025E095BD79
:1000900087BD4FEF53ED60E3415050406040E1F7C2
:1000A00000C0000095BD87BD4FEF53ED60E34150A8
:1000B00050406040E1F700C0000035BD87BD4FEF04
:1000C00053ED60E3415050406040E1F700C0000054
:1000D00025BD87BD4FEF53ED60E341505040604078
:0C00E000E1F700C00000D3CFF894FFCF80
:00000001FF
