:100000000C9434000C943E000C943E000C943E0082
:100010000C943E000C943E000C943E000C943E0068
:100020000C943E000C943E000C943E000C943E0058
:100030000C943E000C943E000C943E000C943E0048
:100040000C943E000C943E000C943E000C943E0038
:100050000C943E000C943E000C943E000C943E0028
:100060000C943E000C943E0011241FBECFEFD8E04C
:10007000DEBFCDBF0E9471000C9486000C9400007E
:1000800087E68093C4001092C50086E88093C20082
:10009000E1ECF0E0808188608083808180618083F2
:1000A00008959091C00095FFFCCF8093C6000895FD
:1000B0008091C00087FFFCCF8091C6000895F99918
:1000C000FECF92BD81BD60BD84E08FBB82E08FBB5F
:1000D0000895F999FECF92BD81BD81E08FBB80B5B7
:1000E0000895CF93DF930E944000C0E0D0E0CE019E
:1000F0000E9469000E9451002196C11584E0D80732
:10010000B1F780E090E0DF91CF910895F894FFCFB0
:00000001FF
