:100000000C9434000C9446000C9446000C9446006A
:100010000C9446000C9446000C9446000C94460048
:100020000C9446000C9446000C9446000C94460038
:100030000C9446000C94BA000C9446000C944600B4
:100040000C9482000C9446000C9446000C944600DC
:100050000C9446000C9446000C9446000C94460008
:100060000C9446000C94460011241FBECFEFD8E03C
:10007000DEBFCDBF11E0A0E0B1E001C01D92A13014
:10008000B107E1F70E9448000C94E4000C940000D2
:10009000DF93CF93CDB7DEB7A4E2B0E0E4E2F0E0C7
:1000A000808180628C93A4E2B0E0E4E2F0E08081A1
:1000B00088608C93E6E4F0E083E88083E4E8F0E095
:1000C0008EEE95E891838083E4E4F0E01082E5E42D
:1000D000F0E084E08083E0E8F0E01082E1E8F0E026
:1000E00084E080837894AEE6B0E0EEE6F0E08081D4
:1000F00081608C93AFE6B0E0EFE6F0E08081816054
:100100008C93FFCF1F920F920FB60F9211248F93F3
:100110009F93AF93BF93EF93FF93DF93CF93CDB7AD
:10012000DEB780910001893159F4A5E2B0E0E5E243
:10013000F0E0908188E089278C931092000105C03F
:10014000809100018F5F80930001E6E4F0E083E896
:100150008083E5E3F0E081E08083CF91DF91FF9140
:10016000EF91BF91AF919F918F910F900FBE0F9024
:100170001F9018951F920F920FB60F9211248F9314
:100180009F93AF93BF93EF93FF93DF93CF93CDB73D
:10019000DEB7A5E2B0E0E5E2F0E0908180E28927F9
:1001A0008C93E4E8F0E08EEE95E891838083CF9124
:1001B000DF91FF91EF91BF91AF919F918F910F9040
:0C01C0000FBE0F901F901895F894FFCF11
:00000001FF
