:100000000C9434000C943E000C943E000C943E0082
:100010000C943E000C943E000C943E000C943E0068
:100020000C943E000C943E000C943E000C943E0058
:100030000C943E000C9440000C943E000C943E0046
:100040000C943E000C943E000C943E000C943E0038
:100050000C943E000C943E000C943E000C943E0028
:100060000C943E000C943E0011241FBECFEFD8E04C
:10007000DEBFCDBF0E946A000C94E7020C94000022
:100080001F920F920FB60F9211248F939F93AF93ED
:10009000BF93EF93FF93DF93CF93CDB7DEB7A5E286
:1000A000B0E0E5E2F0E0908180E289278C93E4E81B
:1000B000F0E087EF92EC91838083CF91DF91FF9105
:1000C000EF91BF91AF919F918F910F900FBE0F90C5
:1000D0001F901895DF93CF93CDB7DEB76D970FB60E
:1000E000F894DEBF0FBECDBFA4E2B0E0E4E2F0E0E2
:1000F000808180628C93E4E8F0E087EF92EC91835A
:100100008083E0E8F0E01082E1E8F0E085E08083C1
:100110007894AFE6B0E0EFE6F0E0808181608C9308
:10012000A4E2B0E0E4E2F0E080818F608C931D8E69
:100130009BC0A5E2B0E0E5E2F0E08081482F8D8D24
:10014000282F30E081E090E002C0880F991F2A95A7
:10015000E2F7842B8C9380E090E0A8E4B3E4898FED
:100160009A8FAB8FBC8F698D7A8D8B8D9C8D20E0A3
:1001700030E04AE755E40E945C02DC01CB018D8B44
:100180009E8BAF8BB88F6D897E898F89988D20E08B
:1001900030E040E85FE30E94DB0188232CF481E03B
:1001A00090E09C8B8B8B3FC06D897E898F89988D69
:1001B00020E03FEF4FE757E40E94580218164CF535
:1001C000698D7A8D8B8D9C8D20E030E040E251E48A
:1001D0000E945C02DC01CB01BC01CD010E94DF0169
:1001E000DC01CB019C8B8B8B0FC080E991E09A8B5B
:1001F000898B89899A890197F1F79A8B898B8B89E9
:100200009C8901979C8B8B8B8B899C89009769F7C4
:1002100014C06D897E898F89988D0E94DF01DC0171
:10022000CB019C8B8B8B8B899C89988B8F878F853F
:1002300098890197F1F7988B8F87A5E2B0E0E5E206
:10024000F0E08081482F8D8D282F30E081E090E014
:10025000022E02C0880F991F0A94E2F7809584232A
:100260008C938D8D8F5F8D8F8D8D843008F461CF51
:1002700082E08D8F9BC0A5E2B0E0E5E2F0E08081F6
:10028000482F8D8D282F30E081E090E002C0880F4C
:10029000991F2A95E2F7842B8C9380E090E0A8E4E4
:1002A000B3E48B879C87AD87BE876B857C858D8506
:1002B0009E8520E030E04AE755E40E945C02DC01C4
:1002C000CB018F839887A987BA876F8178858985C5
:1002D0009A8520E030E040E85FE30E94DB0188235C
:1002E0002CF481E090E09E838D833FC06F81788500
:1002F00089859A8520E03FEF4FE757E40E94580236
:1003000018164CF56B857C858D859E8520E030E048
:1003100040E251E40E945C02DC01CB01BC01CD0152
:100320000E94DF01DC01CB019E838D830FC080E939
:1003300091E09C838B838B819C810197F1F79C8357
:100340008B838D819E8101979E838D838D819E817C
:10035000009769F714C06F81788589859A850E9416
:10036000DF01DC01CB019E838D838D819E819A8389
:10037000898389819A810197F1F79A838983A5E21C
:10038000B0E0E5E2F0E08081482F8D8D282F30E04D
:1003900081E090E0022E02C0880F991F0A94E2F7D4
:1003A000809584238C938D8D81508D8F8D8D8823A6
:1003B00009F061CFBCCE2FD008F481E0089557D06A
:1003C00088F09F5790F0B92F9927B751A0F0D1F03E
:1003D000660F771F881F991F1AF0BA95C9F712C0C8
:1003E000B13081F05ED0B1E008955BC0672F782F07
:1003F0008827B85F39F0B93FCCF386957795679534
:10040000B395D9F73EF490958095709561957F4F9F
:100410008F4F9F4F0895990F0008550FAA0BE0E8E2
:10042000FEEF16161706E807F907C0F012161306B6
:10043000E407F50798F0621B730B840B950B39F4F6
:100440000A2661F0232B242B252B21F408950A265C
:1004500009F4A140A6958FEF811D811D089557FDD8
:100460009058440F551F59F05F3F71F04795880F22
:1004700097FB991F61F09F3F79F0879508951216B9
:1004800013061406551FF2CF4695F1DF08C0161665
:1004900017061806991FF1CF869571056105089416
:1004A0000895E894BB2766277727CB0197F908952D
:1004B000B2DF08F48FEF08950BD078C069D028F030
:1004C0006ED018F0952309F05AC05FC01124EACF0E
:1004D000C6DFA0F3959FD1F3950F50E0551F629FA3
:1004E000F001729FBB27F00DB11D639FAA27F00D8D
:1004F000B11DAA1F649F6627B00DA11D661F829FB4
:100500002227B00DA11D621F739FB00DA11D621F98
:10051000839FA00D611D221F749F3327A00D611DB5
:10052000231F849F600D211D822F762F6A2F112497
:100530009F5750408AF0E1F088234AF0EE0FFF1FEA
:10054000BB1F661F771F881F91505040A9F79E3F21
:10055000510570F014C0A6CF5F3FECF3983EDCF37A
:10056000869577956795B795F795E7959F5FC1F75E
:10057000FE2B880F911D9695879597F9089597F909
:100580009F6780E870E060E008959FEF80EC089539
:1005900000240A9416161706180609060895002462
:1005A0000A9412161306140605060895092E0394DC
:1005B000000C11F4882352F0BB0F40F4BF2B11F450
:1005C00060FF04C06F5F7F4F8F4F9F4F0895F89477
:0205D000FFCF5B
:00000001FF
