:100000000C9434000C9446000C9446000C9446006A
:100010000C9446000C9446000C9446000C94460048
:100020000C9446000C9446000C9446000C94460038
:100030000C9446000C9446000C9446000C94460028
:100040000C9467000C9446000C9446000C944600F7
:100050000C9446000C9446000C9446000C94460008
:100060000C9446000C94460011241FBECFEFD8E03C
:10007000DEBFCDBF11E0A0E0B1E001C01D92A13014
:10008000B107E1F70E9448000C949A000C9400001C
:10009000DF93CF93CDB7DEB7A4E2B0E0E4E2F0E0C7
:1000A000808180628C93E6E4F0E083E88083E4E47E
:1000B000F0E01082E5E4F0E084E080837894AEE63E
:1000C000B0E0EEE6F0E0808181608C93FFCF1F927C
:1000D0000F920FB60F9211248F939F93AF93BF93FC
:1000E000EF93FF93DF93CF93CDB7DEB780910001FD
:1000F0008F5F8093000180910001823351F4A5E26B
:10010000B0E0E5E2F0E0908180E289278C931092E4
:100110000001E6E4F0E083E88083CF91DF91FF9176
:10012000EF91BF91AF919F918F910F900FBE0F9064
:080130001F901895F894FFCF11
:00000001FF
