:100000000C9434000C9451000C9451000C94510049
:100010000C9451000C9451000C9451000C9451001C
:100020000C9451000C9451000C9451000C9451000C
:100030000C9451000C9451000C9451000C945100FC
:100040000C9451000C9451000C9451000C945100EC
:100050000C9451000C9451000C9451000C945100DC
:100060000C9451000C94510011241FBECFEFD8E026
:10007000DEBFCDBF11E0A0E0B1E0E8ECF5E002C0EA
:1000800005900D92A038B107D9F721E0A0E8B1E0C2
:1000900001C01D92A438B207E1F70E944F020C94F0
:1000A000E2020C9400002D9A85E08A95F1F7000099
:1000B0002D980895CF93C82F662311F02C9A01C074
:1000C0002C985E98529A539A549A559A5D985C98D7
:1000D0005B985A98C7FD5D9AC6FD5C9AC5FD5B9A10
:1000E000C4FD5A9A0E9453005D985C985B985A9898
:1000F000C3FD5D9AC2FD5C9AC1FD5B9AC0FD5A9A30
:100100000E9453005A9A5B9A5C9A5D9ACF91089527
:100110002C985E9A52985398549855982D9A85E049
:100120008A95F1F700004A9B02C080E101C080E09F
:100130004B9980624C9980644D9980682D9895E028
:100140009A95F1F700002D9A95E09A95F1F7000045
:100150004A9981604B9982604C9984604D9988607E
:100160002D9808950E94880087FDFCCF85E18A952F
:10017000F1F700000C948800CF93C82F0E94B200C2
:1001800060E08C2FCF910C945A00CF93C82F0E941F
:10019000B20061E08C2FCF910C945A00611102C023
:1001A000805801C080540C94BC000E94B20090E0C2
:1001B000089581E00C94BC0082E00C94BC00CF93C5
:1001C000C82F0E94B200CA3049F4803410F080E099
:1001D00001C080E48058CF910C94BC0061E08C2F6A
:1001E000CF910C945A00CF93DF93EC01899188232F
:1001F00019F00E94DF00FACFDF91CF910895CF93DD
:10020000DF93FC018491EF012196882321F00E9465
:10021000DF00FE01F7CFDF91CF910895CF93C82F74
:10022000249A569A259A529A539A549A559A8FEF2D
:1002300099EF0197F1F700C000005B9A5A9A0E946B
:1002400053008FE19EE40197F1F700C000000E9487
:1002500053008FEF90E00197F1F700C000000E947B
:1002600053008FEF90E00197F1F700C000005A981B
:100270000E9453008FEF90E00197F1F700C000005B
:1002800088E20E94BC0088E00E94BC000E94D90065
:1002900086E00E94BC008C2FCF910C94BC0087B1EB
:1002A0008F6087B984B1807F84B9089541E050E0C0
:1002B0001092810110928001209180013091810182
:1002C00024303105A8F738B1CA0101C0880F2A953A
:1002D000EAF7832B88B910928301109282018091F2
:1002E0008201909183018430910560F523B130E063
:1002F000082E02C0359527950A94E2F720FF1CC00E
:100300002FEF89E698E1215080409040E1F700C04E
:1003100000008091820190918301880F991F880FBE
:10032000991F80509F4F2091800130918101FC01E5
:10033000E20FF31F808108950196909383018093CB
:100340008201CDCF98B19A010090800102C0220FA6
:10035000331F0A94E2F7822F8095892388B9809110
:100360008001909181010196909381018093800199
:10037000A3CFCF93DF93EB01682F80E00E94CE00E4
:10038000CE01DF91CF910C94F300CF93C42F0E9444
:10039000CE008C2FCF910C94DF000F931F93CF933F
:1003A000DF938C0160E271E080E090E00E94B9018F
:1003B00080EC0E94BC00E80100E010E02991E0E13F
:1003C000F1E080E090E03191321721F00196803128
:1003D0009105C9F7FC01E05FFE4F408161E070E0EC
:1003E000C8010E94C5010F5F1F4F0A30110531F788
:1003F000DF91CF911F910F910895CF93DF93EC017F
:100400002A96DC01FC014191CF01E0E1F1E020E01E
:1004100030E05191541729F02F5F3F4F20313105C3
:10042000C1F7FB01E20FF31FEF70FF27E05FFE4F04
:1004300020812C938C179D0721F7DF91CF91089590
:1004400087E68093C4001092C50086E88093C200BE
:10045000E1ECF0E08081886080838081806180832E
:1004600008959091C00095FFFCCF8093C600089539
:100470008091C00087FFFCCF8091C6000895F99954
:10048000FECF92BD81BD60BD84E08FBB82E08FBB9B
:100490000895F999FECF92BD81BD80B50895CF92A0
:1004A000DF92FF920F931F93CF93DF930E9420025E
:1004B0008CE00E940E0163E380E090E00E943F0226
:1004C000C8E6D1E083E3F82E0E944F0160E371E0BB
:1004D00080E090E00E94B9016FE371E081E090E07C
:1004E0000E94B9010E9456018A3221F50E94D9006A
:1004F0006EE471E080E090E00E94B9010E94560134
:10050000F82E682F80E090E00E943F020E94D90000
:100510006AE571E080E090E00E94B9012FEF83ED81
:1005200090E3215080409040E1F700C000000E941D
:10053000D900CACF833241F60E94D90069E671E042
:1005400080E090E00E94B90180EC0E94BC006E0146
:1005500000E010E00E945601F60181936F01482FE0
:1005600061E070E0C8010E94C5010F5F1F4F0A30B3
:10057000110581F70E94D9006F2D0F2C000C770B0D
:1005800060537109CE010E94FD01CE010E94CD0190
:100590000E945601833221F00E94D9002A9694CFFE
:1005A0000E94D90066E771E080E090E00E94B90106
:1005B00080E090E0DF91CF911F910F91FF90DF904D
:0805C000CF900895F894FFCFDD
:1005C8003132334134353642373839432A302344BF
:1005D8003031323334353637383941424344232AAF
:1005E800456E6372797074656420546578743A0056
:1005F800456E6372797074202020202D20230043DB
:1006080068616E6765204B6579202D202A00456E4C
:10061800746572204B6579203A004B455920434850
:10062800414E47454420212100456E74657220548F
:10063800657874203A0046696E69736865640000DD
:00000001FF
