:100000000C9434000C943E000C943E000C943E0082
:100010000C943E000C943E000C943E000C943E0068
:100020000C943E000C943E000C943E000C943E0058
:100030000C943E000C943E000C943E000C943E0048
:100040000C943E000C943E000C943E000C943E0038
:100050000C943E000C943E000C943E000C943E0028
:100060000C943E000C943E0011241FBECFEFD8E04C
:10007000DEBFCDBF0E9471000C94B7000C9400004D
:1000800087E68093C4001092C50086E88093C20082
:10009000E1ECF0E0808188608083808180618083F2
:1000A00008959091C00095FFFCCF8093C6000895FD
:1000B0008091C00087FFFCCF8091C6000895F99918
:1000C000FECF92BD81BD60BD84E08FBB82E08FBB5F
:1000D0000895F999FECF92BD81BD81E08FBB80B5B7
:1000E0000895AF92BF92DF92EF92FF920F931F930A
:1000F000CF93DF93CDB7DEB7C85CD1090FB6F894C4
:10010000DEBF0FBECDBF0E944000CE0101967C0134
:100110008C015801AE18BF08FDE0DF1639F00E94CF
:100120005800D82EF80181938F01F3CF00E010E042
:100130000A151B0549F0F70161917F01C8010E9472
:100140005F000F5F1F4FF4CF80E090E0C853DF4F98
:100150000FB6F894DEBF0FBECDBFDF91CF911F91D8
:100160000F91FF90EF90DF90BF90AF900895F894BB
:02017000FFCFBF
:00000001FF
