:100000000C9434000C943E000C943E000C943E0082
:100010000C943E000C943E000C943E000C943E0068
:100020000C943E000C943E000C943E000C943E0058
:100030000C943E000C943E000C943E000C943E0048
:100040000C943E000C943E000C943E000C943E0038
:100050000C943E000C943E000C943E000C943E0028
:100060000C943E000C943E0011241FBECFEFD8E04C
:10007000DEBFCDBF0E9440000C9460000C940000D5
:10008000569A83E884BD83E085BD17BC87B58F3F52
:1000900051F08FE19EE40197F1F700C0000087B5B1
:1000A0008F5F87BDF3CF87B5882381F38FE19EE40F
:1000B0000197F1F700C0000087B5815087BDF3CFED
:0400C000F894FFCFE2
:00000001FF
