:100000000C9434000C943E000C943E000C943E0082
:100010000C943E000C943E000C943E000C943E0068
:100020000C943E000C943E000C943E000C943E0058
:100030000C943E000C943E000C943E000C943E0048
:100040000C943E000C943E000C943E000C943E0038
:100050000C943E000C943E000C943E000C943E0028
:100060000C943E000C943E0011241FBECFEFD8E04C
:10007000DEBFCDBF0E947F000C9488000C9400006E
:1000800087E68093C4001092C50086E88093C20082
:10009000E1ECF0E0808188608083808180618083F2
:1000A00008959091C00095FFFCCF8093C6000895FD
:1000B0008091C00087FFFCCF8091C6000895982FE3
:1000C0009F7D9154973110F48D5F0895883561F0CC
:1000D000893561F08A3561F0883761F0893761F0E0
:1000E0008A3761F483E60AC081E4089582E40895C2
:1000F00083E4089581E6089582E6089508950E94B4
:1001000040000E9458000E945F000E945100F9CFF9
:04011000F894FFCF91
:00000001FF
